:100000000C9460000C947D000C947D000C94F00C1A
:100010000C947D000C947D000C947D000C942D0AB2
:100020000C947D000C947D000C947D000C947D005C
:100030000C947D000C947D000C94F7090C947D00C9
:100040000C947D000C947D000C947D000C947D003C
:100050000C947D000C947D000C947D000C947D002C
:100060000C947D000C947D000C947D000C947D001C
:100070000C947D000C947D000C947D000C947D000C
:100080000C947D000C947D000C947D000C947D00FC
:100090000C947D000C947D000C947D000C947D00EC
:1000A0002E034B037803A503D203FF032C0459044A
:1000B0009804B504E204130544057505A605D305A7
:1000C00011241FBECFEFCDBFDFE3DEBF19E2A0E0FA
:1000D000B8E2E6E8FCE102C005900D92AA39B1074A
:1000E000D9F72AE2AAE9B9E201C01D92A131B2070B
:1000F000E1F70E94EF070C94410E0C9400000E945F
:10010000E0080895882311F0099A08950998089540
:10011000882311F00C9A08950C980895882311F003
:100120000D9A08950D980895882311F00E9A089558
:100130000E980895882311F00F9A08950F98089546
:10014000882311F0489A089548980895882311F05B
:10015000499A089549980895882311F04A9A089574
:100160004A980895882311F04B9A08954B98089562
:10017000882311F04C9A08954C980895882311F023
:10018000689A089568980895882311F06C9A0895E4
:100190006C980895882311F06D9A08956D980895CC
:1001A000882311F06E9A08956E980895882311F0AF
:1001B0006F9A08956F980895882311F0889A08958A
:1001C00088980895882311F0899A08958998089548
:1001D000882311F08A9A08958A980895882311F047
:1001E0008B9A08958B980895882311F0A89A089502
:1001F000A8980895882311F0A99A0895A9980895B8
:10020000882311F0AA9A0895AA980895882311F0D6
:10021000AD9A0895AD980895882311F0AE9A089587
:10022000AE9808950895FFCF0E94460980938D29C6
:100230000E94560908958CE00E9449090895809112
:100240008C298F3F39F40E94460980938C290E94A3
:100250005609089580918B298F3F39F40E944609F1
:1002600080938B290E945A0908950E9446090E9492
:100270005A0908950E9450098BE191E00E946E098D
:100280008FE191E00E947B0984E191E00E9488095E
:1002900082E191E00E94950983E191E00E94A20928
:1002A00083E191E00E941B0A0E94400981E00895C9
:1002B000E5ECF9E28AE990E08083918384E990E0BB
:1002C000828393838EE890E08483958388E890E02E
:1002D0008683978382E890E0808791878CE091E025
:1002E000828793878EEB90E08487958788EB90E0F8
:1002F0008687978782EB90E0808B918B8CEA90E0E9
:10030000828B938B86EA90E0848B958B80EA90E0D9
:10031000868B978B82EE90E0808F918F8CED90E0B2
:10032000828F938F86ED90E0848F958F80ED90E0A3
:10033000868F978F8AEC90E080A391A384EC90E065
:1003400082A393A386E091E084A395A380E091E04B
:1003500086A397A38AEF90E080A791A784EF90E00F
:1003600082A793A78EEE90E084A795A788EE90E0F1
:1003700086A797A70895009779F0FC012081318125
:10038000E3EAF9E22083318382839383FC01628173
:1003900073818481958108950E94FF0DAC019C01B9
:1003A000A5ECBEE40E94900D96958795969587954D
:1003B000969587956AE1689F9001699F300D112499
:1003C000FA01E21BF30BEE0FFF1FE95FF74D0190FF
:1003D000F081E02D80819181A3EAB9E28D939C9315
:1003E00011971296ED93FC93139762817381848128
:1003F00095810895EF92FF920F931F93CF93DF9310
:100400008C01C5ECD9E20F2EF5EFEF2EF9E2FF2EAD
:10041000F02DE991F99181E0D80116964D915D9109
:100420006D917C911997452B462B472B09F480E061
:100430000995CE15DF0569F7F801828593850E943D
:10044000BB01DF91CF911F910F91FF90EF90089525
:10045000DC01EDEAF9E220E030E020FF05C016966D
:100460008C911697808304C016968C911697808382
:100470002F5F3F4F31962831310579F71A968D91CC
:100480009C911B970E94BB010895BF92CF92DF926F
:10049000EF92FF920F931F93CF93DF938C01CDEADE
:1004A000D9E2C12CD12C7601BB24BA94F801268163
:1004B000378140855185C701B6010E94680D672BC1
:1004C000682B692B11F4B88201C01882FFEFCF1A94
:1004D000DF0AEF0AFF0A219688E1C816D104E10479
:1004E000F10421F7F801828593850E94BB01DF9119
:1004F000CF911F910F91FF90EF90DF90CF90BF9021
:100500000895DF92EF92FF920F931F93CF93DF93A3
:100510008C018091A1299091A22901968093A12913
:100520009093A229F80186819781A085B185892BB6
:100530008A2B8B2B51F1E12CF12CC8E1D0E0DD248A
:10054000DA940E94FF0DBE010E94540DFC01E35598
:10055000F64DD0820E94FF0DBE010E94540DFC0199
:10056000E355F64D1082FFEFEF1AFF0AA7010F2C9B
:10057000000C660B770BF80186819781A085B18509
:10058000481759076A077B07E0F28091A1299091EB
:10059000A229893E934050F01092A1291092A229DD
:1005A000F801828593850E94BB0103C0C8010E94A7
:1005B000BB01DF91CF911F910F91FF90EF90DF90E2
:1005C00008950F931F93CF93DF93EC010E94FF0DCB
:1005D00068E170E00E94540DFC01E355F64D8E81F8
:1005E00080834E815F8168857985EDEAF9E225ECAB
:1005F00039E201E010E0819190E0A0E0B0E08417E2
:100600009507A607B70711F000E010E0E217F3071F
:1006100091F700939F291093A029012B29F08A8537
:100620009B850E94BB0103C0CE010E94BB01DF91EC
:10063000CF911F910F9108950F931F93DC01169690
:100640004D915D916D917C9119974830510508F05D
:1006500047C1FA01E05BFF4F0C948A0D48E853E173
:1006600060E070E012964D935D936D937C931597C7
:1006700081E08093062841E050E060E070E016964B
:100680004D935D936D937C93199780919E298F5F15
:1006900080939E2925C14091062881E014160CF014
:1006A00080E08195EDEAF9E2828385838087838704
:1006B00000E117E220E030E012960D931D932D9398
:1006C0003C931597042E000C550B660B770B169672
:1006D0000D911D912D913C911997400F511F621F53
:1006E000731F16964D935D936D937C931997F8C085
:1006F0004091062881E014160CF080E08195EDEA27
:10070000F9E2818384838783828700E117E220E016
:1007100030E012960D931D932D933C931597042E64
:10072000000C550B660B770B16960D911D912D91B4
:100730003C911997400F511F621F731F16964D93DE
:100740005D936D937C931997CBC04091062881E00F
:1007500014160CF080E08195EDEAF9E28083838342
:100760008683818700E117E220E030E012960D9346
:100770001D932D933C931597042E000C550B660B7F
:10078000770B16960D911D912D913C911997400F65
:10079000511F621F731F16964D935D936D937C934B
:1007A00019979EC04091062881E014160CF080E055
:1007B0008195EDEAF9E28687818B848B878B00E156
:1007C00017E220E030E012960D931D932D933C9399
:1007D0001597042E000C550B660B770B16960D9192
:1007E0001D912D913C911997400F511F621F731F4E
:1007F00016964D935D936D937C93199771C04091BC
:10080000062881E014160CF080E08195EDEAF9E20B
:100810008587808B838B868B00E117E220E030E0B8
:1008200012960D931D932D933C931597042E000C57
:10083000550B660B770B16960D911D912D913C91E2
:100840001997400F511F621F731F16964D935D93AA
:100850006D937C93199744C04091062881E014164B
:100860000CF080E08195EDEAF9E284878787828B3E
:10087000858B00E117E220E030E012960D931D9386
:100880002D933C931597042E000C550B660B770B9C
:1008900016960D911D912D913C911997400F511F66
:1008A000621F731F16964D935D936D937C931997FA
:1008B00017C048E853E160E070E012964D935D93F5
:1008C0006D937C9315978FEF8093062846E050E058
:1008D00060E070E016964D935D936D937C9319974D
:1008E00080919E29863060F010929E2981E080934D
:1008F00006281A968D919C911B970E94BB0103C0FC
:10090000CD010E94BB011F910F9108950F931F937A
:10091000DC0116964D915D916D917C91199748304F
:10092000510508F057C1FA01E85AFF4F0C948A0D9F
:1009300048E853E160E070E012964D935D936D934B
:100940007C93159781E08093052841E050E060E0BA
:1009500070E016964D935D936D937C9319978091FB
:100960009D298F5F80939D2935C1EDEAF9E28FEFD4
:1009700082838583808783871182148217821286FF
:1009800040E157E260E070E012964D935D936D9305
:100990007C93159740910528042E000C550B660B8F
:1009A000770B16960D911D912D913C911997400F43
:1009B000511F621F731F16964D935D936D937C9329
:1009C000199708C1EDEAF9E21282158210861386A2
:1009D0008FEF8183848387838287108213821682BC
:1009E000118640E157E260E070E012964D935D930E
:1009F0006D937C93159740910528042E000C550BA0
:100A0000660B770B16960D911D912D913C911997C0
:100A1000400F511F621F731F16964D935D936D9388
:100A20007C931997D7C0EDEAF9E2118214821782FC
:100A300012868FEF80838383868381871686118A4F
:100A4000148A178A40E157E260E070E012964D93F5
:100A50005D936D937C93159740910528042E000CAF
:100A6000550B660B770B16960D911D912D913C91B0
:100A70001997400F511F621F731F16964D935D9378
:100A80006D937C931997A6C0EDEAF9E21082138268
:100A9000168211868FEF8687818B848B878B1586D4
:100AA000108A138A168A40E157E260E070E01296DD
:100AB0004D935D936D937C93159740910528042E7B
:100AC000000C550B660B770B16960D911D912D9111
:100AD0003C911997400F511F621F731F16964D933B
:100AE0005D936D937C93199775C0EDEAF9E21686D4
:100AF000118A148A178A8FEF8587808B838B868B68
:100B000014861786128A158A40E157E260E070E089
:100B100012964D935D936D937C93159740910528A4
:100B2000042E000C550B660B770B16960D911D913C
:100B30002D913C911997400F511F621F731F1696FC
:100B40004D935D936D937C93199744C0EDEAF9E260
:100B50001586108A138A168A8FEF84878787828B7F
:100B6000858B40E157E260E070E012964D935D9313
:100B70006D937C93159740910528042E000C550B1E
:100B8000660B770B16960D911D912D913C9119973F
:100B9000400F511F621F731F16964D935D936D9307
:100BA0007C93199717C048E853E160E070E0129613
:100BB0004D935D936D937C9315978FEF80930528EC
:100BC00046E050E060E070E016964D935D936D93C3
:100BD0007C93199780919D29863060F010929D2911
:100BE00081E0809305281A968D919C911B970E9415
:100BF000BB0103C0CD010E94BB011F910F9108955D
:100C0000FC0186819781A085B18582309105A1057F
:100C1000B10509F463C048F40097A105B10599F046
:100C20000197A105B10541F108C184309105A105E5
:100C3000B10509F4BBC008F485C00597A105B1054D
:100C400009F4E8C0FAC088E893E1A0E0B0E082834C
:100C50009383A483B58381E08093042881E090E0AE
:100C6000A0E0B0E086839783A087B18780919C291C
:100C70008F5F80939C29E1C09091042881E0191630
:100C80000CF080E08195ADEAB9E28C9311968C93DB
:100C9000119712968C93129757968C935797569656
:100CA0008C93569755968C9340E157E260E070E044
:100CB0004283538364837583892F990F990BAA0B01
:100CC000BB0B4681578160857185840F951FA61FD8
:100CD000B71F86839783A087B187AFC09091042800
:100CE00081E019160CF080E08195ADEAB9E2159625
:100CF0008C93159714968C93149713968C93139743
:100D000054968C93549753968C93539752968C93F6
:100D100040E157E260E070E042835383648375836F
:100D2000892F990F990BAA0BBB0B468157816085C0
:100D30007185840F951FA61FB71F86839783A08791
:100D4000B1877BC09091042881E019160CF080E0F7
:100D50008195ADEAB9E218968C93189717968C9303
:100D6000179716968C93169751968C935197509689
:100D70008C9350971F968C9340E157E260E070E0AF
:100D80004283538364837583892F990F990BAA0B30
:100D9000BB0B4681578160857185840F951FA61F07
:100DA000B71F86839783A087B18747C09091042897
:100DB00081E019160CF080E08195ADEAB9E21B964E
:100DC0008C931B971A968C931A9719968C93199754
:100DD0001E968C931E971D968C931D971C968C9334
:100DE00040E157E260E070E042835383648375839F
:100DF000892F990F990BAA0BBB0B468157816085F0
:100E00007185840F951FA61FB71F86839783A087C0
:100E1000B18713C088E893E1A0E0B0E082839383B8
:100E2000A483B5838FEF8093042884E090E0A0E052
:100E3000B0E086839783A087B18780919C29863014
:100E400050F010929C2981E080930428828593853C
:100E50000E94BB010895CF010E94BB010895CF936A
:100E6000DF93EC0180919A2990919B2901968093C0
:100E70009A2990939B29EDEAF9E285818083848108
:100E80008183838182838489878B8389868B82890E
:100E9000858B80858583878184838681838381890F
:100EA000848B8089838B8785828B838580878285ED
:100EB0008783818586838685818B8585808B8485E4
:100EC00087871386128611861686158614860E94D9
:100ED000FF0D8F709078992324F40197806F9F6F96
:100EE000019682309105A9F02CF4009751F00197FA
:100EF00061F01EC084309105A1F07CF00597A9F047
:100F000017C08FEF8093B82913C08FEF8093B72954
:100F10000FC08FEF8093B6290BC08FEF8093BB2952
:100F200007C08FEF8093BA2903C08FEF8093B92950
:100F300080919A2990919B298139914048F0109293
:100F40009A2910929B298A859B850E94BB0103C028
:100F5000CE010E94BB01DF91CF910895EDEAF9E245
:100F600020E030E02430310549F02730310531F000
:100F70002031310519F02331310529F4DC011696B1
:100F80004C91408301C010822F5F3F4F3196283132
:100F9000310541F7FC01828593850E94BB010895CC
:100FA000EDEAF9E22CEF3FEF2230310530F0A901F4
:100FB0004C5051094230510528F4DC0116964C91F1
:100FC000408301C010822F5F3F4F3196243131059D
:100FD00059F7FC01828593850E94BB0108950E9408
:100FE0007F000E9458010E943A017894E3EAF9E2F6
:100FF0008EEA97E0808391838BE398E282839383E8
:1010000040E355E760E070E0CF010E94560CC0E07D
:10101000D0E077247A9403EA19E20F2EFAEFEF2E4C
:10102000F1E0FF2EF02D0F2EF7E68F2EF9E29F2E26
:10103000F02D0F2EFBE5AF2EF9E2BF2EF02D0F2E77
:10104000F7E7CF2EF8E2DF2EF02DFE01E355F64D47
:101050008081882359F0FE01EE0FFF1FEB53F64D00
:101060000190F081E02D81E009950AC0FE01EE0FAC
:10107000FF1FEB53F64D0190F081E02D80E00995C4
:101080002196C831D10514F0C0E0D0E080918C29C0
:101090008F3FA1F190918B299F3F81F1823089F0A0
:1010A0008330E1F0813031F5F801E082F182C282D3
:1010B000D38248EE53E060E070E0C8010E94560C15
:1010C00019C0F801E082F1828282938248EE53E0F7
:1010D00060E070E0C8010E94560C0CC0F801E0828C
:1010E000F182A282B38248EE53E060E070E0C80172
:1010F0000E94560C70928B2970928C290E94B90C18
:10110000A4CF80E0089580E0089580E00895E0E1B4
:10111000F4E0808188608193E83184E0F807C9F7C2
:10112000E0E3F4E0808188608193E83384E0F807AD
:10113000C9F7E0E5F4E0808188608193E83584E0D8
:10114000F807C9F7E0E7F4E0808188608193E83729
:1011500084E0F807C9F7E0E9F4E0808188608193D2
:10116000E83984E0F807C9F7E0EBF4E080818860B3
:101170008193E83B84E0F807C9F70895009A08983E
:101180000E94200A0895039A0B98E3E1F4E080811D
:10119000877F808380818F7780838081887F808331
:1011A000029A0A98E2E1F4E08081877F808380815F
:1011B0008F7780838081887F80830E9421090895B2
:1011C0000E948708019A0998049A0C98059A0D982C
:1011D000069A0E98079A0F98409A4898419A49980B
:1011E000429A4A98439A4B98449A4C98609A6898C5
:1011F000649A6C98659A6D98669A6E98679A6F98DB
:10120000809A8898819A8998829A8A98839A8B98EA
:10121000A09AA898A19AA998A29AAA98A59AAD98D6
:10122000A69AAE980E9483080E94660A0E94BE0891
:101230000E9485080E94600A0E94C3080E948108DB
:101240000895E0EAF8E088E3848781EE81871092D0
:10125000072A1092082A1092092A10920A2A10923C
:101260000B2A10920C2A1092052A1092062A10922C
:101270000F2A1092102A10920D2A10920E2A089509
:10128000E0EAF8E081858160818708958091AD086A
:101290000895E0EAF8E08587828583608287089573
:1012A000E0EAF8E0818581608187089583E080939A
:1012B000AA08089586E08093AA080895E0EAF8E075
:1012C0008385806C838782E082870895E091092A74
:1012D000F0910A2A309709F0099508958093092A18
:1012E00090930A2A0895E091072AF091082A3097EE
:1012F00009F0099508958093072A9093082A089584
:10130000E0910B2AF0910C2A309709F00995089585
:1013100080930B2A90930C2A0895E091052AF0916E
:10132000062A309709F0099508958093052A90932D
:10133000062A0895E0910F2AF091102A309709F0BB
:101340000995089580930F2A9093102A0895E091AB
:101350000D2AF0910E2A309709F009950895809191
:10136000AB0883FF03C00E949A0908958091AB08DF
:1013700082FF03C00E94A70908958091AB0886FFF1
:101380000AC08091AB0880FF06C00E94800981E0FE
:1013900080938E2908958091AB088823D4F480919E
:1013A000AB0881FF13C08091AB0884FF04C080911B
:1013B0008E29882341F010928E290E94660983E0CD
:1013C0008093AA0808950E945E0908950E947309F7
:1013D00008958091AB0886FF09C08091AB0880FD1D
:1013E00005C00E948D0982E08093AA0808951F928B
:1013F0000F920FB60F9211242F933F934F935F9349
:101400006F937F938F939F93AF93BF93EF93FF93CC
:101410000E94AF09FF91EF91BF91AF919F918F9182
:101420007F916F915F914F913F912F910F900FBEE0
:101430000F901F90189580930D2A90930E2A08956F
:10144000E0E0FAE080E890E080A791A783E1818363
:1014500081E08287808380E008951F920F920FB60B
:101460000F9211242F933F934F935F936F937F932A
:101470008F939F93AF93BF93EF93FF9381E08093FC
:101480000B0A8091F5298F5F8093F529882339F025
:10149000E091F629F091F729309709F00995FF912D
:1014A000EF91BF91AF919F918F917F916F915F91DC
:1014B0004F913F912F910F900FBE0F901F90189555
:1014C00080E0089560E070E0CB010895E0E4F1E091
:1014D00081818111FDCFE0E4F1E081E080838283AE
:1014E0000895E0E4F1E082818E7F82831092FD29ED
:1014F0001092FE291092FF291092002A1092F929C9
:101500001092FA291092FB291092FC291092F829C6
:1015100008958F929F92AF92BF92CF92DF92EF92F7
:10152000FF920F931F93CF93DF93EC010E811F81E6
:1015300028853985A091032AB091042A1C821D8236
:101540004091FD295091FE296091FF297091002A58
:10155000041715072607370708F065C0C090FD2956
:10156000D090FE29E090FF29F090002A8091F82980
:10157000882339F1409148015091490160E070E0C1
:101580008090F9299090FA29A090FB29B090FC292D
:10159000481559056A057B0520F44FEF5FEF60E0C1
:1015A00070E08090F9299090FA29A090FB29B090E2
:1015B000FC29C818D908EA08FB08C40ED51EE61E87
:1015C000F71E109791F0FD01468157816085718566
:1015D0004C195D096E097F094683578360877187BF
:1015E0000480F581E02D309779F74091FD295091E5
:1015F000FE296091FF297091002A4C195D096E093E
:101600007F094093FD295093FE296093FF29709331
:10161000002A2F5F3F4F0C191D092E093F090E8329
:101620001F8328873987109709F452C016964D9169
:101630005D916D917C91199704171507260737075F
:1016400058F446C046815781608571850417150797
:1016500026073707A8F1DF011496ED91FC91159745
:10166000309781F72DC0818181FDFDCFE0E4F1E06D
:101670001086118681E08383818181FDFDCF4091B9
:10168000F9295091FA296091FB297091FC29E0E435
:10169000F1E04087518781E0838389E2AF38B80762
:1016A00029F4909193298091942902C09A2F8B2F2D
:1016B0009C838D83C093032AD093042A81E013C0B6
:1016C000EC83FD831496CD93DC93159780E00BC0DB
:1016D0001092F9291092FA291092FB291092FC29F4
:1016E000E0E4F1E0C0CFDF91CF911F910F91FF9027
:1016F000EF90DF90CF90BF90AF909F908F90089524
:101700000F931F93E0E4F1E082818E7F8283E0916A
:10171000032AF091042A309719F40E94710A67C0D5
:101720004091FD295091FE296091FF297091002A76
:1017300086819781A085B185841B950BA60BB70B7D
:10174000009701E0A007B10500F14091FD295091FB
:10175000FE296091FF297091002AAFE8B9E241505B
:1017600051096F4F7F4F16964D935D936D937C9308
:1017700019971496ED93FC931597A093032AB093B1
:10178000042A8FEF9FEFA0E0B0E04FEF5FEF60E043
:1017900070E08A019B01081B190B2A0B3B0B00937D
:1017A000F9291093FA292093FB293093FC29E0E4CE
:1017B000F1E0818181FDFDCFE0E4F1E0108611864A
:1017C00081E08383818181FDFDCF8091F929909112
:1017D000FA29A091FB29B091FC29E0E4F1E080878F
:1017E000918782818160828381E08093F8291F91B3
:1017F0000F910895FC0180819181892B09F440C0EB
:10180000A0E4B1E012968C9112978E7F12968C9381
:10181000808191818617970761F4A081B181149628
:101820008D919C911597808391830E94800B81E01C
:101830000895A081B1811097E1F06A177B0789F4C0
:1018400004C06E177F0761F403C0FD01A0E0B0E0A3
:101850008481958114968D939C93159781E00AC09D
:10186000DF011496ED91FC911597309751F780E0C8
:1018700001C080E0E0E4F1E09281916092830895FC
:1018800080E00895CF93DF93EC01BC0183E09AE2FE
:101890000E94FA0B811105C0BE0181E09AE20E940C
:1018A000FA0B1C821D82DF91CF910895CF92DF92B7
:1018B000EF92FF92CF93DF93EC016A017B010E94CC
:1018C000420CE0E4F1E082818E7F82834091FD2929
:1018D0005091FE296091FF297091002A4C0D5D1DE9
:1018E0006E1D7F1D8091F829882339F18091480170
:1018F00090914901A0E0B0E0C090F929D090FA2978
:10190000E090FB29F090FC298C159D05AE05BF05E4
:1019100020F48FEF9FEFA0E0B0E0C090F929D090C5
:10192000FA29E090FB29F090FC294C195D096E0919
:101930007F09480F591F6A1F7B1F4E835F8368878B
:101940007987CE010E94890A882319F00E94800BB2
:1019500009C08091F829882329F0E0E4F1E0828130
:1019600081608283DF91CF91FF90EF90DF90CF90E5
:101970000895CF93DF938091012A9091022A892BB9
:1019800061F1E0E4F1E0928182818E7F8283C091F7
:10199000012AD091022AE091012AF091022A2481A1
:1019A00035812093012A3093022A1C821D8290FFE8
:1019B00005C0E0E4F1E0828181608283E881F98101
:1019C0008A819B810995611571058105910529F031
:1019D000AB01BC01CE010E94560CDF91CF9108955E
:1019E0001F920F920FB60F9211242F933F934F9394
:1019F0005F936F937F938F939F93AF93BF93EF9377
:101A0000FF93A091032AB091042A14962D913C9142
:101A1000159716964D915D916D917C911997409314
:101A2000FD295093FE296093FF297093002A10929C
:101A3000F9291092FA291092FB291092FC29149688
:101A40001D921C9215978091012A9091022A892B50
:101A500029F4A093012AB093022A0CC0E091012A34
:101A6000F091022A01C0FC01848195810097D9F789
:101A7000A483B5832093032A3093042A0E94800B09
:101A800081E080934301FF91EF91BF91AF919F91CE
:101A90008F917F916F915F914F913F912F910F9017
:101AA0000FBE0F901F90189597FB072E16F4009409
:101AB00007D077FD09D00E949F0D07FC05D03EF4AA
:101AC000909581959F4F0895709561957F4F0895EA
:101AD000A1E21A2EAA1BBB1BFD010DC0AA1FBB1F32
:101AE000EE1FFF1FA217B307E407F50720F0A21BA4
:101AF000B30BE40BF50B661F771F881F991F1A9411
:101B000069F760957095809590959B01AC01BD013A
:101B1000CF010895EE0FFF1F0590F491E02D099479
:101B2000A29FB001B39FC001A39F700D811D11241E
:101B3000911DB29F700D811D1124911D0895AA1B46
:101B4000BB1B51E107C0AA1FBB1FA617B70710F0A8
:101B5000A61BB70B881F991F5A95A9F780959095DA
:101B6000BC01CD0108958F929F92AF92BF92CF9208
:101B7000DF92EF92FF92CF93DF93EC01688179813E
:101B80008A819B81611571058105910521F464E2CB
:101B900079ED8BE597E02DE133EF41E050E00E94D5
:101BA0000F0E49015A019B01AC01A7EAB1E40E9462
:101BB0002E0E6B017C01ACEEB4EFA50194010E94E6
:101BC0003C0EDC01CB018C0D9D1DAE1DBF1DB7FF72
:101BD00003C00197A109B04888839983AA83BB8376
:101BE0009F77DF91CF91FF90EF90DF90CF90BF90E4
:101BF000AF909F908F9008950E94B30D089580E05C
:101C000098E20E94B30D0895A0E0B0E08093002810
:101C100090930128A0930228B09303280895052EDD
:101C200097FB1EF400940E94260E57FD07D00E94D9
:101C3000680D07FC03D04EF40C94260E5095409589
:101C4000309521953F4F4F4F5F4F08959095809568
:101C5000709561957F4F8F4F9F4F08950E94900D13
:101C6000A59F900DB49F900DA49F800D911D1124F0
:101C70000895B7FF0C942E0E0E942E0E821B930B1C
:061C80000895F894FFCF67
:101C8600010000000101013B28472853285F286B0B
:101C96002877288F289B28A728B328BF28D728E38A
:101CA60028EF28FB28072913291F292B2937294321
:101CB600294F2967295B297F297329E102E8030057
:101CC60000000000004728E102E8030000FF0000D2
:101CD600005328E102E8030000000000005F28AE80
:101CE6000730750000FF0000006B28D00730750034
:101CF60000FF0000007728FA01307500000100009F
:101D060000832881022C010000010000008F28FAC0
:101D16000130750000000000009B28860430750025
:101D26000000000000E328280230750000000000D3
:101D360000B32828023075000001000000BF2828E3
:101D4600023075000001000000CB28450230750006
:101D56000004000000D72845023075000008000086
:101D660000E328FA013075000000000000EF282F7C
:101D760007D007000000000000FB28E1022C01004C
:101D860000000000000729860430750000000000EE
:101D9600001329E1022C010000010000001F29E1C7
:101DA600022C010000000000002B290006307500FF
:101DB60000000000003729FA01E8030000000000D7
:101DC6000043291C0330750000000000004F29FA6B
:101DD6000130750000000000000000860430750028
:101DE6000001000000000000063075000001000040
:101DF600000000AE0730750000FF0000000000D0B4
:101E06000730750000FF0000000000FFFFFF0162C1
:0A1E16000A000000000000000000B8
:00000001FF
